{
  "_format": "hh-sol-artifact-1",
  "contractName": "RocketNodeManager",
  "sourceName": "contracts/contract/node/RocketNodeManager.sol",
  "abi": [
    {
      "inputs": [
        {
          "internalType": "contract RocketStorageInterface",
          "name": "_rocketStorageAddress",
          "type": "address"
        }
      ],
      "stateMutability": "nonpayable",
      "type": "constructor"
    },
    {
      "anonymous": false,
      "inputs": [
        {
          "indexed": true,
          "internalType": "address",
          "name": "node",
          "type": "address"
        },
        {
          "indexed": true,
          "internalType": "address",
          "name": "withdrawalAddress",
          "type": "address"
        },
        {
          "indexed": false,
          "internalType": "uint256",
          "name": "time",
          "type": "uint256"
        }
      ],
      "name": "NodeRPLWithdrawalAddressSet",
      "type": "event"
    },
    {
      "anonymous": false,
      "inputs": [
        {
          "indexed": true,
          "internalType": "address",
          "name": "node",
          "type": "address"
        },
        {
          "indexed": false,
          "internalType": "uint256",
          "name": "time",
          "type": "uint256"
        }
      ],
      "name": "NodeRPLWithdrawalAddressUnset",
      "type": "event"
    },
    {
      "anonymous": false,
      "inputs": [
        {
          "indexed": true,
          "internalType": "address",
          "name": "node",
          "type": "address"
        },
        {
          "indexed": false,
          "internalType": "uint256",
          "name": "time",
          "type": "uint256"
        }
      ],
      "name": "NodeRegistered",
      "type": "event"
    },
    {
      "anonymous": false,
      "inputs": [
        {
          "indexed": true,
          "internalType": "address",
          "name": "node",
          "type": "address"
        },
        {
          "indexed": false,
          "internalType": "uint256",
          "name": "network",
          "type": "uint256"
        }
      ],
      "name": "NodeRewardNetworkChanged",
      "type": "event"
    },
    {
      "anonymous": false,
      "inputs": [
        {
          "indexed": true,
          "internalType": "address",
          "name": "node",
          "type": "address"
        },
        {
          "indexed": false,
          "internalType": "bool",
          "name": "state",
          "type": "bool"
        }
      ],
      "name": "NodeSmoothingPoolStateChanged",
      "type": "event"
    },
    {
      "anonymous": false,
      "inputs": [
        {
          "indexed": true,
          "internalType": "address",
          "name": "node",
          "type": "address"
        },
        {
          "indexed": false,
          "internalType": "uint256",
          "name": "time",
          "type": "uint256"
        }
      ],
      "name": "NodeTimezoneLocationSet",
      "type": "event"
    },
    {
      "inputs": [
        {
          "internalType": "address",
          "name": "_nodeAddress",
          "type": "address"
        }
      ],
      "name": "confirmRPLWithdrawalAddress",
      "outputs": [],
      "stateMutability": "nonpayable",
      "type": "function"
    },
    {
      "inputs": [
        {
          "internalType": "address",
          "name": "_nodeAddress",
          "type": "address"
        }
      ],
      "name": "getAverageNodeFee",
      "outputs": [
        {
          "internalType": "uint256",
          "name": "",
          "type": "uint256"
        }
      ],
      "stateMutability": "view",
      "type": "function"
    },
    {
      "inputs": [
        {
          "internalType": "address",
          "name": "_nodeAddress",
          "type": "address"
        }
      ],
      "name": "getFeeDistributorInitialised",
      "outputs": [
        {
          "internalType": "bool",
          "name": "",
          "type": "bool"
        }
      ],
      "stateMutability": "view",
      "type": "function"
    },
    {
      "inputs": [
        {
          "internalType": "uint256",
          "name": "_offset",
          "type": "uint256"
        },
        {
          "internalType": "uint256",
          "name": "_limit",
          "type": "uint256"
        }
      ],
      "name": "getNodeAddresses",
      "outputs": [
        {
          "internalType": "address[]",
          "name": "",
          "type": "address[]"
        }
      ],
      "stateMutability": "view",
      "type": "function"
    },
    {
      "inputs": [
        {
          "internalType": "uint256",
          "name": "_index",
          "type": "uint256"
        }
      ],
      "name": "getNodeAt",
      "outputs": [
        {
          "internalType": "address",
          "name": "",
          "type": "address"
        }
      ],
      "stateMutability": "view",
      "type": "function"
    },
    {
      "inputs": [],
      "name": "getNodeCount",
      "outputs": [
        {
          "internalType": "uint256",
          "name": "",
          "type": "uint256"
        }
      ],
      "stateMutability": "view",
      "type": "function"
    },
    {
      "inputs": [
        {
          "internalType": "uint256",
          "name": "_offset",
          "type": "uint256"
        },
        {
          "internalType": "uint256",
          "name": "_limit",
          "type": "uint256"
        }
      ],
      "name": "getNodeCountPerTimezone",
      "outputs": [
        {
          "components": [
            {
              "internalType": "string",
              "name": "timezone",
              "type": "string"
            },
            {
              "internalType": "uint256",
              "name": "count",
              "type": "uint256"
            }
          ],
          "internalType": "struct RocketNodeManagerInterface.TimezoneCount[]",
          "name": "",
          "type": "tuple[]"
        }
      ],
      "stateMutability": "view",
      "type": "function"
    },
    {
      "inputs": [
        {
          "internalType": "address",
          "name": "_nodeAddress",
          "type": "address"
        }
      ],
      "name": "getNodeDetails",
      "outputs": [
        {
          "components": [
            {
              "internalType": "bool",
              "name": "exists",
              "type": "bool"
            },
            {
              "internalType": "uint256",
              "name": "registrationTime",
              "type": "uint256"
            },
            {
              "internalType": "string",
              "name": "timezoneLocation",
              "type": "string"
            },
            {
              "internalType": "bool",
              "name": "feeDistributorInitialised",
              "type": "bool"
            },
            {
              "internalType": "address",
              "name": "feeDistributorAddress",
              "type": "address"
            },
            {
              "internalType": "uint256",
              "name": "rewardNetwork",
              "type": "uint256"
            },
            {
              "internalType": "uint256",
              "name": "rplStake",
              "type": "uint256"
            },
            {
              "internalType": "uint256",
              "name": "effectiveRPLStake",
              "type": "uint256"
            },
            {
              "internalType": "uint256",
              "name": "minimumRPLStake",
              "type": "uint256"
            },
            {
              "internalType": "uint256",
              "name": "maximumRPLStake",
              "type": "uint256"
            },
            {
              "internalType": "uint256",
              "name": "ethMatched",
              "type": "uint256"
            },
            {
              "internalType": "uint256",
              "name": "ethMatchedLimit",
              "type": "uint256"
            },
            {
              "internalType": "uint256",
              "name": "minipoolCount",
              "type": "uint256"
            },
            {
              "internalType": "uint256",
              "name": "balanceETH",
              "type": "uint256"
            },
            {
              "internalType": "uint256",
              "name": "balanceRETH",
              "type": "uint256"
            },
            {
              "internalType": "uint256",
              "name": "balanceRPL",
              "type": "uint256"
            },
            {
              "internalType": "uint256",
              "name": "balanceOldRPL",
              "type": "uint256"
            },
            {
              "internalType": "uint256",
              "name": "depositCreditBalance",
              "type": "uint256"
            },
            {
              "internalType": "uint256",
              "name": "distributorBalanceUserETH",
              "type": "uint256"
            },
            {
              "internalType": "uint256",
              "name": "distributorBalanceNodeETH",
              "type": "uint256"
            },
            {
              "internalType": "address",
              "name": "withdrawalAddress",
              "type": "address"
            },
            {
              "internalType": "address",
              "name": "pendingWithdrawalAddress",
              "type": "address"
            },
            {
              "internalType": "bool",
              "name": "smoothingPoolRegistrationState",
              "type": "bool"
            },
            {
              "internalType": "uint256",
              "name": "smoothingPoolRegistrationChanged",
              "type": "uint256"
            },
            {
              "internalType": "address",
              "name": "nodeAddress",
              "type": "address"
            }
          ],
          "internalType": "struct NodeDetails",
          "name": "nodeDetails",
          "type": "tuple"
        }
      ],
      "stateMutability": "view",
      "type": "function"
    },
    {
      "inputs": [
        {
          "internalType": "address",
          "name": "_nodeAddress",
          "type": "address"
        }
      ],
      "name": "getNodeExists",
      "outputs": [
        {
          "internalType": "bool",
          "name": "",
          "type": "bool"
        }
      ],
      "stateMutability": "view",
      "type": "function"
    },
    {
      "inputs": [
        {
          "internalType": "address",
          "name": "_nodeAddress",
          "type": "address"
        }
      ],
      "name": "getNodePendingRPLWithdrawalAddress",
      "outputs": [
        {
          "internalType": "address",
          "name": "",
          "type": "address"
        }
      ],
      "stateMutability": "view",
      "type": "function"
    },
    {
      "inputs": [
        {
          "internalType": "address",
          "name": "_nodeAddress",
          "type": "address"
        }
      ],
      "name": "getNodePendingWithdrawalAddress",
      "outputs": [
        {
          "internalType": "address",
          "name": "",
          "type": "address"
        }
      ],
      "stateMutability": "view",
      "type": "function"
    },
    {
      "inputs": [
        {
          "internalType": "address",
          "name": "_nodeAddress",
          "type": "address"
        }
      ],
      "name": "getNodeRPLWithdrawalAddress",
      "outputs": [
        {
          "internalType": "address",
          "name": "",
          "type": "address"
        }
      ],
      "stateMutability": "view",
      "type": "function"
    },
    {
      "inputs": [
        {
          "internalType": "address",
          "name": "_nodeAddress",
          "type": "address"
        }
      ],
      "name": "getNodeRPLWithdrawalAddressIsSet",
      "outputs": [
        {
          "internalType": "bool",
          "name": "",
          "type": "bool"
        }
      ],
      "stateMutability": "view",
      "type": "function"
    },
    {
      "inputs": [
        {
          "internalType": "address",
          "name": "_nodeAddress",
          "type": "address"
        }
      ],
      "name": "getNodeRegistrationTime",
      "outputs": [
        {
          "internalType": "uint256",
          "name": "",
          "type": "uint256"
        }
      ],
      "stateMutability": "view",
      "type": "function"
    },
    {
      "inputs": [
        {
          "internalType": "address",
          "name": "_nodeAddress",
          "type": "address"
        }
      ],
      "name": "getNodeTimezoneLocation",
      "outputs": [
        {
          "internalType": "string",
          "name": "",
          "type": "string"
        }
      ],
      "stateMutability": "view",
      "type": "function"
    },
    {
      "inputs": [
        {
          "internalType": "address",
          "name": "_nodeAddress",
          "type": "address"
        }
      ],
      "name": "getNodeWithdrawalAddress",
      "outputs": [
        {
          "internalType": "address",
          "name": "",
          "type": "address"
        }
      ],
      "stateMutability": "view",
      "type": "function"
    },
    {
      "inputs": [
        {
          "internalType": "address",
          "name": "_nodeAddress",
          "type": "address"
        }
      ],
      "name": "getRewardNetwork",
      "outputs": [
        {
          "internalType": "uint256",
          "name": "",
          "type": "uint256"
        }
      ],
      "stateMutability": "view",
      "type": "function"
    },
    {
      "inputs": [
        {
          "internalType": "uint256",
          "name": "_offset",
          "type": "uint256"
        },
        {
          "internalType": "uint256",
          "name": "_limit",
          "type": "uint256"
        }
      ],
      "name": "getSmoothingPoolRegisteredNodeCount",
      "outputs": [
        {
          "internalType": "uint256",
          "name": "",
          "type": "uint256"
        }
      ],
      "stateMutability": "view",
      "type": "function"
    },
    {
      "inputs": [
        {
          "internalType": "address",
          "name": "_nodeAddress",
          "type": "address"
        }
      ],
      "name": "getSmoothingPoolRegistrationChanged",
      "outputs": [
        {
          "internalType": "uint256",
          "name": "",
          "type": "uint256"
        }
      ],
      "stateMutability": "view",
      "type": "function"
    },
    {
      "inputs": [
        {
          "internalType": "address",
          "name": "_nodeAddress",
          "type": "address"
        }
      ],
      "name": "getSmoothingPoolRegistrationState",
      "outputs": [
        {
          "internalType": "bool",
          "name": "",
          "type": "bool"
        }
      ],
      "stateMutability": "view",
      "type": "function"
    },
    {
      "inputs": [],
      "name": "initialiseFeeDistributor",
      "outputs": [],
      "stateMutability": "nonpayable",
      "type": "function"
    },
    {
      "inputs": [
        {
          "internalType": "string",
          "name": "_timezoneLocation",
          "type": "string"
        }
      ],
      "name": "registerNode",
      "outputs": [],
      "stateMutability": "nonpayable",
      "type": "function"
    },
    {
      "inputs": [
        {
          "internalType": "address",
          "name": "_nodeAddress",
          "type": "address"
        },
        {
          "internalType": "address",
          "name": "_newRPLWithdrawalAddress",
          "type": "address"
        },
        {
          "internalType": "bool",
          "name": "_confirm",
          "type": "bool"
        }
      ],
      "name": "setRPLWithdrawalAddress",
      "outputs": [],
      "stateMutability": "nonpayable",
      "type": "function"
    },
    {
      "inputs": [
        {
          "internalType": "address",
          "name": "_nodeAddress",
          "type": "address"
        },
        {
          "internalType": "uint256",
          "name": "_network",
          "type": "uint256"
        }
      ],
      "name": "setRewardNetwork",
      "outputs": [],
      "stateMutability": "nonpayable",
      "type": "function"
    },
    {
      "inputs": [
        {
          "internalType": "bool",
          "name": "_state",
          "type": "bool"
        }
      ],
      "name": "setSmoothingPoolRegistrationState",
      "outputs": [],
      "stateMutability": "nonpayable",
      "type": "function"
    },
    {
      "inputs": [
        {
          "internalType": "string",
          "name": "_timezoneLocation",
          "type": "string"
        }
      ],
      "name": "setTimezoneLocation",
      "outputs": [],
      "stateMutability": "nonpayable",
      "type": "function"
    },
    {
      "inputs": [
        {
          "internalType": "address",
          "name": "_nodeAddress",
          "type": "address"
        }
      ],
      "name": "unsetRPLWithdrawalAddress",
      "outputs": [],
      "stateMutability": "nonpayable",
      "type": "function"
    },
    {
      "inputs": [],
      "name": "version",
      "outputs": [
        {
          "internalType": "uint8",
          "name": "",
          "type": "uint8"
        }
      ],
      "stateMutability": "view",
      "type": "function"
    }
  ],
  "bytecode": "0x608060405260008054610100600160a81b03191690553480156200002257600080fd5b50604051620052e0380380620052e083398101604081905262000045916200007a565b6000805460ff196001600160a01b0390931661010002929092166001600160a81b0319909216919091176004179055620000ac565b6000602082840312156200008d57600080fd5b81516001600160a01b0381168114620000a557600080fd5b9392505050565b61522480620000bc6000396000f3fe608060405234801561001057600080fd5b50600436106101c45760003560e01c806365d4176f116100f9578063b71f0c7c11610097578063d565f27611610071578063d565f276146103f8578063e667d8281461040b578063f5b17b421461041e578063fd4125131461043157600080fd5b8063b71f0c7c146103b2578063ba75d806146103c5578063bafb3581146103d857600080fd5b8063a4cef9dd116100d3578063a4cef9dd14610359578063a7e6e8b31461036c578063b018f0261461037f578063b715a1aa1461039f57600080fd5b806365d4176f14610310578063927ece4f1461033357806399283f8b1461034657600080fd5b80633a643648116101665780634d99f633116101405780634d99f633146102c357806354fd4d50146102d65780635b49ff62146102f557806364908a861461030857600080fd5b80633a6436481461028a578063414dd1d21461029d57806343f88981146102b057600080fd5b806329554540116101a2578063295545401461022f5780632a7968eb1461024f5780632d7f21d01461026257806339bf397e1461028257600080fd5b806302d8a732146101c95780631ac3c0a8146101ef57806327c6f43e1461021a575b600080fd5b6101dc6101d73660046149b7565b610444565b6040519081526020015b60405180910390f35b6102026101fd3660046149b7565b6105bf565b6040516001600160a01b0390911681526020016101e6565b61022d6102283660046149d4565b61065a565b005b61024261023d366004614a46565b610e5b565b6040516101e69190614ab8565b61022d61025d3660046149b7565b611206565b610275610270366004614a46565b6113e2565b6040516101e69190614b4c565b6101dc6115ce565b61022d6102983660046149b7565b6116ce565b6101dc6102ab3660046149b7565b6118a0565b6101dc6102be3660046149b7565b611ec6565b6101dc6102d13660046149b7565b611fc9565b6000546102e39060ff1681565b60405160ff90911681526020016101e6565b6102026103033660046149b7565b61201d565b61022d6120ac565b61032361031e3660046149b7565b612525565b60405190151581526020016101e6565b6103236103413660046149b7565b612576565b61022d610354366004614ba7565b612651565b6103236103673660046149b7565b612b3f565b61022d61037a3660046149d4565b612b90565b61039261038d3660046149b7565b612e01565b6040516101e69190614bc4565b6101dc6103ad366004614a46565b612e50565b6102026103c03660046149b7565b612fe1565b6102026103d3366004614bd7565b6130d2565b6103eb6103e63660046149b7565b6131ad565b6040516101e69190614bf0565b61022d610406366004614d8a565b613d0c565b6103236104193660046149b7565b614090565b61022d61042c366004614db6565b6140f4565b61020261043f3660046149b7565b6143ad565b6040517f6e6f64652e65786973747300000000000000000000000000000000000000000060208201526bffffffffffffffffffffffff19606083901b16602b82015260009082906104ae90603f015b604051602081830303815290604052805190602001206143ff565b6104ff5760405162461bcd60e51b815260206004820152600c60248201527f496e76616c6964206e6f6465000000000000000000000000000000000000000060448201526064015b60405180910390fd5b6105b88360405160200161059d91907f726577617264732e706f6f6c2e636c61696d2e636f6e74726163742e7265676981527f7374657265642e74696d6500000000000000000000000000000000000000000060208201527f726f636b6574436c61696d4e6f64650000000000000000000000000000000000602b82015260609190911b6bffffffffffffffffffffffff1916603a820152604e0190565b6040516020818303038152906040528051906020012061448a565b9392505050565b60006106548260405160200161063991907f6e6f64652e70656e64696e672e72706c2e7769746864726177616c2e6164647281527f6573730000000000000000000000000000000000000000000000000000000000602082015260609190911b6bffffffffffffffffffffffff1916602382015260370190565b60405160208183030381529060405280519060200120614515565b92915050565b6040518060400160405280601181526020017f726f636b65744e6f64654d616e61676572000000000000000000000000000000815250306106a5826040516020016106399190614e01565b6001600160a01b0316816001600160a01b0316146107055760405162461bcd60e51b815260206004820152601c60248201527f496e76616c6964206f72206f7574646174656420636f6e74726163740000000060448201526064016104f6565b60006107456040518060400160405280601d81526020017f726f636b657444414f50726f746f636f6c53657474696e67734e6f6465000000815250614564565b905060006107876040518060400160405280601181526020017f6164647265737353657453746f72616765000000000000000000000000000000815250614564565b905060006107c96040518060400160405280601681526020017f726f636b65744e6574776f726b536e617073686f747300000000000000000000815250614564565b9050826001600160a01b03166387b1bb116040518163ffffffff1660e01b8152600401602060405180830381865afa158015610809573d6000803e3d6000fd5b505050506040513d601f19601f8201168201806040525081019061082d9190614e46565b61089f5760405162461bcd60e51b815260206004820152603560248201527f526f636b657420506f6f6c206e6f646520726567697374726174696f6e73206160448201527f72652063757272656e746c792064697361626c6564000000000000000000000060648201526084016104f6565b60048610156108f05760405162461bcd60e51b815260206004820181905260248201527f5468652074696d657a6f6e65206c6f636174696f6e20697320696e76616c696460448201526064016104f6565b6040517f6e6f64652e65786973747300000000000000000000000000000000000000000060208201526bffffffffffffffffffffffff193360601b16602b82015261095690603f015b6040516020818303038152906040528051906020012060016145d3565b6040517f6e6f64652e766f74696e672e656e61626c65640000000000000000000000000060208201526bffffffffffffffffffffffff193360601b1660338201526109a390604701610939565b6040517f6e6f64652e74696d657a6f6e652e6c6f636174696f6e0000000000000000000060208201526bffffffffffffffffffffffff193360601b166036820152610a3d90604a016040516020818303038152906040528051906020012088888080601f01602080910402602001604051908101604052809392919081815260200183838082843760009201919091525061465b92505050565b6040517f6e6f6465732e696e6465780000000000000000000000000000000000000000006020820152600090602b0160408051808303601f190181529082905280516020909101207f889271660000000000000000000000000000000000000000000000000000000082526004820181905233602483015291506001600160a01b03841690638892716690604401600060405180830381600087803b158015610ae557600080fd5b505af1158015610af9573d6000803e3d6000fd5b50505050610b06336146aa565b604080517f726577617264732e706f6f6c2e636c61696d2e636f6e74726163742e7265676960208201527f7374657265642e74696d65000000000000000000000000000000000000000000918101919091527f726f636b6574436c61696d4e6f64650000000000000000000000000000000000604b8201526bffffffffffffffffffffffff193360601b16605a820152610bb990606e016040516020818303038152906040528051906020012042614735565b816001600160a01b031663231e5cde604051602001610bfb907f6e6f64652e636f756e74000000000000000000000000000000000000000000008152600a0190565b6040516020818303038152906040528051906020012043866001600160a01b031663c9d6fee9866040518263ffffffff1660e01b8152600401610c4091815260200190565b602060405180830381865afa158015610c5d573d6000803e3d6000fd5b505050506040513d601f19601f82011682018060405250810190610c819190614e63565b6040517fffffffff0000000000000000000000000000000000000000000000000000000060e086901b168152600481019390935263ffffffff9190911660248301527bffffffffffffffffffffffffffffffffffffffffffffffffffffffff166044820152606401600060405180830381600087803b158015610d0357600080fd5b505af1158015610d17573d6000803e3d6000fd5b50506040517f6e6f64652e64656c65676174650000000000000000000000000000000000000060208201526bffffffffffffffffffffffff193360601b16602d8201526001600160a01b038516925063231e5cde915060410160408051808303601f1901815290829052805160209091012060e083901b7fffffffff00000000000000000000000000000000000000000000000000000000168252600482015263ffffffff431660248201527bffffffffffffffffffffffffffffffffffffffffffffffffffffffff33166044820152606401600060405180830381600087803b158015610e0457600080fd5b505af1158015610e18573d6000803e3d6000fd5b50506040514281523392507ff773bca07d020a1bc1fdd45ea3db573da547dd27180143afaf075c158a847594915060200160405180910390a25050505050505050565b60606000610e9d6040518060400160405280601181526020017f6164647265737353657453746f72616765000000000000000000000000000000815250614564565b90506000604051602001610ed4907f6e6f6465732e696e6465780000000000000000000000000000000000000000008152600b0190565b60408051601f198184030181529082905280516020909101207fc9d6fee90000000000000000000000000000000000000000000000000000000082526004820181905291506000906001600160a01b0384169063c9d6fee990602401602060405180830381865afa158015610f4d573d6000803e3d6000fd5b505050506040513d601f19601f82011682018060405250810190610f719190614e63565b90506000610f7f8688614eab565b905081811180610f8d575085155b15610f955750805b6000610fa18883614ebe565b67ffffffffffffffff811115610fb957610fb9614ed1565b604051908082528060200260200182016040528015610fff57816020015b604080518082019091526060815260006020820152815260200190600190039081610fd75790505b5090506000885b838110156111f8576040517ff3358a3a00000000000000000000000000000000000000000000000000000000815260048101879052602481018290526000906001600160a01b0389169063f3358a3a90604401602060405180830381865afa158015611076573d6000803e3d6000fd5b505050506040513d601f19601f8201168201806040525081019061109a9190614f00565b6040517f6e6f64652e74696d657a6f6e652e6c6f636174696f6e0000000000000000000060208201526bffffffffffffffffffffffff19606083901b16603682015290915060009061110590604a015b6040516020818303038152906040528051906020012061478a565b90506000805b8581101561118c57828051906020012087828151811061112d5761112d614f1d565b602002602001015160000151805190602001200361117c576001915086818151811061115b5761115b614f1d565b6020026020010151602001805180919061117490614f4c565b90525061118c565b61118581614f4c565b905061110b565b50806111e457818686815181106111a5576111a5614f1d565b60200260200101516000018190525060018686815181106111c8576111c8614f1d565b6020908102919091018101510152846111e081614f4c565b9550505b505050806111f190614f4c565b9050611006565b508152979650505050505050565b6040517f6e6f64652e65786973747300000000000000000000000000000000000000000060208201526bffffffffffffffffffffffff19606083901b16602b820152819061125690603f01610493565b6112a25760405162461bcd60e51b815260206004820152600c60248201527f496e76616c6964206e6f6465000000000000000000000000000000000000000060448201526064016104f6565b6040517f6e6f64652e72706c2e7769746864726177616c2e61646472657373000000000060208201526bffffffffffffffffffffffff19606084901b16603b820152600090604f01604051602081830303815290604052805190602001209050336001600160a01b031661131582614515565b6001600160a01b0316146113915760405162461bcd60e51b815260206004820152603b60248201527f4f6e6c7920612074782066726f6d2061206e6f646527732052504c207769746860448201527f64726177616c20616464726573732063616e20756e736574206974000000000060648201526084016104f6565b61139a8161481a565b826001600160a01b03167fb62e03dab231209df2b46d49d4aa960deab93ff886a706653b5fc6b7ab57073f426040516113d591815260200190565b60405180910390a2505050565b606060006114246040518060400160405280601181526020017f6164647265737353657453746f72616765000000000000000000000000000000815250614564565b9050600060405160200161145b907f6e6f6465732e696e6465780000000000000000000000000000000000000000008152600b0190565b604051602081830303815290604052805190602001209050600061147d6115ce565b9050600061148b8688614eab565b905081811180611499575085155b156114a15750805b60006114ad8883614ebe565b67ffffffffffffffff8111156114c5576114c5614ed1565b6040519080825280602002602001820160405280156114ee578160200160208202803683370190505b5090506000885b838110156111f8576040517ff3358a3a00000000000000000000000000000000000000000000000000000000815260048101879052602481018290526001600160a01b0388169063f3358a3a90604401602060405180830381865afa158015611562573d6000803e3d6000fd5b505050506040513d601f19601f820116820180604052508101906115869190614f00565b83838151811061159857611598614f1d565b6001600160a01b0390921660209283029190910190910152816115ba81614f4c565b925050806115c790614f4c565b90506114f5565b60008061160f6040518060400160405280601181526020017f6164647265737353657453746f72616765000000000000000000000000000000815250614564565b9050806001600160a01b031663c9d6fee9604051602001611653907f6e6f6465732e696e6465780000000000000000000000000000000000000000008152600b0190565b604051602081830303815290604052805190602001206040518263ffffffff1660e01b815260040161168791815260200190565b602060405180830381865afa1580156116a4573d6000803e3d6000fd5b505050506040513d601f19601f820116820180604052508101906116c89190614e63565b91505090565b6040517f6e6f64652e65786973747300000000000000000000000000000000000000000060208201526bffffffffffffffffffffffff19606083901b16602b820152819061171e90603f01610493565b61176a5760405162461bcd60e51b815260206004820152600c60248201527f496e76616c6964206e6f6465000000000000000000000000000000000000000060448201526064016104f6565b6000826040516020016117e191907f6e6f64652e70656e64696e672e72706c2e7769746864726177616c2e6164647281527f6573730000000000000000000000000000000000000000000000000000000000602082015260609190911b6bffffffffffffffffffffffff1916602382015260370190565b604051602081830303815290604052805190602001209050336001600160a01b031661180c82614515565b6001600160a01b0316146118885760405162461bcd60e51b815260206004820152603e60248201527f436f6e6669726d6174696f6e206d75737420636f6d652066726f6d207468652060448201527f70656e64696e672052504c207769746864726177616c2061646472657373000060648201526084016104f6565b6118918161481a565b61189b8333614891565b505050565b6000806118e16040518060400160405280601581526020017f726f636b65744d696e69706f6f6c4d616e616765720000000000000000000000815250614564565b905060006119236040518060400160405280601181526020017f726f636b65744e6f64654465706f736974000000000000000000000000000000815250614564565b905060006119486040518060600160405280602181526020016151ab60219139614564565b90506000826001600160a01b0316639bed5a456040518163ffffffff1660e01b8152600401600060405180830381865afa15801561198a573d6000803e3d6000fd5b505050506040513d6000823e601f3d908101601f191682016040526119b29190810190614fb5565b90506000815167ffffffffffffffff8111156119d0576119d0614ed1565b6040519080825280602002602001820160405280156119f9578160200160208202803683370190505b5090506000825167ffffffffffffffff811115611a1857611a18614ed1565b604051908082528060200260200182016040528015611a41578160200160208202803683370190505b5090506000806000866001600160a01b03166308e50d386040518163ffffffff1660e01b8152600401602060405180830381865afa158015611a87573d6000803e3d6000fd5b505050506040513d601f19601f82011682018060405250810190611aab9190614e63565b905060005b8651811015611baa57896001600160a01b031663240eb3308d898481518110611adb57611adb614f1d565b60200260200101516040518363ffffffff1660e01b8152600401611b149291906001600160a01b03929092168252602082015260400190565b602060405180830381865afa158015611b31573d6000803e3d6000fd5b505050506040513d601f19601f82011682018060405250810190611b559190614e63565b858281518110611b6757611b67614f1d565b602002602001018181525050848181518110611b8557611b85614f1d565b602002602001015183611b989190614eab565b9250611ba381614f4c565b9050611ab0565b5081600003611bc4575060009a9950505050505050505050565b60005b8651811015611c6e57848181518110611be257611be2614f1d565b6020026020010151878281518110611bfc57611bfc614f1d565b602002602001015183611c0f9190614ebe565b611c19919061505b565b868281518110611c2b57611c2b614f1d565b602002602001018181525050858181518110611c4957611c49614f1d565b602002602001015184611c5c9190614eab565b9350611c6781614f4c565b9050611bc7565b5060005b8651811015611ce05783670de0b6b3a7640000878381518110611c9757611c97614f1d565b6020026020010151611ca9919061505b565b611cb39190615072565b868281518110611cc557611cc5614f1d565b6020908102919091010152611cd981614f4c565b9050611c72565b506000805b8751811015611ea3576000868281518110611d0257611d02614f1d565b60200260200101511115611e93576000888281518110611d2457611d24614f1d565b602002602001015167de0b6b3a7640000003611da6578d604051602001611d8991907f6e6f64652e617665726167652e6665652e6e756d657261746f72000000000000815260609190911b6bffffffffffffffffffffffff1916601a820152602e0190565b604051602081830303815290604052805190602001209050611e2e565b8d898381518110611db957611db9614f1d565b6020026020010151604051602001611e159291907f6e6f64652e617665726167652e6665652e6e756d657261746f72000000000000815260609290921b6bffffffffffffffffffffffff1916601a830152602e820152604e0190565b6040516020818303038152906040528051906020012090505b6000611e398261448a565b9050878381518110611e4d57611e4d614f1d565b6020026020010151898481518110611e6757611e67614f1d565b602002602001015182611e7a919061505b565b611e849190615072565b611e8e9085614eab565b935050505b611e9c81614f4c565b9050611ce5565b50611eb6670de0b6b3a764000082615072565b9c9b505050505050505050505050565b60006040518060400160405280601181526020017f726f636b65744e6f64654d616e6167657200000000000000000000000000000081525030611f13826040516020016106399190614e01565b6001600160a01b0316816001600160a01b031614611f735760405162461bcd60e51b815260206004820152601c60248201527f496e76616c6964206f72206f7574646174656420636f6e74726163740000000060448201526064016104f6565b6040517f6e6f64652e7265776172642e6e6574776f726b0000000000000000000000000060208201526bffffffffffffffffffffffff19606086901b166033820152611fc19060470161059d565b949350505050565b60006106548260405160200161059d91907f6e6f64652e736d6f6f7468696e672e706f6f6c2e6368616e6765642e74696d65815260609190911b6bffffffffffffffffffffffff1916602082015260340190565b600080546040517f5b49ff620000000000000000000000000000000000000000000000000000000081526001600160a01b03848116600483015261010090920490911690635b49ff62906024015b602060405180830381865afa158015612088573d6000803e3d6000fd5b505050506040513d601f19601f820116820180604052508101906106549190614f00565b6040518060400160405280601181526020017f726f636b65744e6f64654d616e61676572000000000000000000000000000000815250306120f7826040516020016106399190614e01565b6001600160a01b0316816001600160a01b0316146121575760405162461bcd60e51b815260206004820152601c60248201527f496e76616c6964206f72206f7574646174656420636f6e74726163740000000060448201526064016104f6565b336121aa8160405160200161049391907f6e6f64652e657869737473000000000000000000000000000000000000000000815260609190911b6bffffffffffffffffffffffff1916600b820152601f0190565b6121f65760405162461bcd60e51b815260206004820152600c60248201527f496e76616c6964206e6f6465000000000000000000000000000000000000000060448201526064016104f6565b6121ff33612576565b1561224c5760405162461bcd60e51b815260206004820152601360248201527f416c726561647920696e697469616c697365640000000000000000000000000060448201526064016104f6565b600061228c6040518060400160405280601581526020017f726f636b65744d696e69706f6f6c4d616e616765720000000000000000000000815250614564565b6040517f1ce9ec330000000000000000000000000000000000000000000000000000000081523360048201529091506000906001600160a01b03831690631ce9ec3390602401602060405180830381865afa1580156122ef573d6000803e3d6000fd5b505050506040513d601f19601f820116820180604052508101906123139190614e63565b90508015612515576000805b828110156124ae576040517f8b300029000000000000000000000000000000000000000000000000000000008152336004820152602481018290526000906001600160a01b03861690638b30002990604401602060405180830381865afa15801561238e573d6000803e3d6000fd5b505050506040513d601f19601f820116820180604052508101906123b29190614f00565b90506002816001600160a01b0316634e69d5606040518163ffffffff1660e01b8152600401602060405180830381865afa1580156123f4573d6000803e3d6000fd5b505050506040513d601f19601f8201168201806040525081019061241891906150dc565b6004811115612429576124296150ad565b0361249d57806001600160a01b031663e71501346040518163ffffffff1660e01b8152600401602060405180830381865afa15801561246c573d6000803e3d6000fd5b505050506040513d601f19601f820116820180604052508101906124909190614e63565b61249a9084614eab565b92505b506124a781614f4c565b905061231f565b506040517f6e6f64652e617665726167652e6665652e6e756d657261746f7200000000000060208201526bffffffffffffffffffffffff193360601b16603a82015261251390604e016040516020818303038152906040528051906020012082614735565b505b61251e336146aa565b5050505050565b6040517f6e6f64652e65786973747300000000000000000000000000000000000000000060208201526bffffffffffffffffffffffff19606083901b16602b82015260009061065490603f01610493565b6000806125b76040518060400160405280601c81526020017f726f636b65744e6f64654469737472696275746f72466163746f727900000000815250614564565b6040517ffa2a5b010000000000000000000000000000000000000000000000000000000081526001600160a01b03858116600483015291925060009183169063fa2a5b0190602401602060405180830381865afa15801561261c573d6000803e3d6000fd5b505050506040513d601f19601f820116820180604052508101906126409190614f00565b3b63ffffffff161515949350505050565b6040518060400160405280601181526020017f726f636b65744e6f64654d616e616765720000000000000000000000000000008152503061269c826040516020016106399190614e01565b6001600160a01b0316816001600160a01b0316146126fc5760405162461bcd60e51b815260206004820152601c60248201527f496e76616c6964206f72206f7574646174656420636f6e74726163740000000060448201526064016104f6565b3361274f8160405160200161049391907f6e6f64652e657869737473000000000000000000000000000000000000000000815260609190911b6bffffffffffffffffffffffff1916600b820152601f0190565b61279b5760405162461bcd60e51b815260206004820152600c60248201527f496e76616c6964206e6f6465000000000000000000000000000000000000000060448201526064016104f6565b60006127db6040518060400160405280601d81526020017f726f636b657444414f50726f746f636f6c53657474696e67734e6f6465000000815250614564565b9050806001600160a01b03166301dd16296040518163ffffffff1660e01b8152600401602060405180830381865afa15801561281b573d6000803e3d6000fd5b505050506040513d601f19601f8201168201806040525081019061283f9190614e46565b6128b15760405162461bcd60e51b815260206004820152602b60248201527f536d6f6f7468696e6720706f6f6c20726567697374726174696f6e732061726560448201527f206e6f742061637469766500000000000000000000000000000000000000000060648201526084016104f6565b604080517f6e6f64652e736d6f6f7468696e672e706f6f6c2e6368616e6765642e74696d656020808301919091523360601b6bffffffffffffffffffffffff1916828401819052835160348185030181526054840185528051908301207f6e6f64652e736d6f6f7468696e672e706f6f6c2e7374617465000000000000006074850152608d8401919091528351608181850301815260a1840180865281519184019190912060e185019095529182527f726f636b657444414f50726f746f636f6c53657474696e67735265776172647360c19093019290925290919060009061299990614564565b90506000816001600160a01b03166394e5d5126040518163ffffffff1660e01b8152600401602060405180830381865afa1580156129db573d6000803e3d6000fd5b505050506040513d601f19601f820116820180604052508101906129ff9190614e63565b90506000612a0c8561448a565b9050612a188282614eab565b421015612a8d5760405162461bcd60e51b815260206004820152602f60248201527f4e6f7420656e6f7567682074696d6520686173207061737365642073696e636560448201527f206368616e67696e67207374617465000000000000000000000000000000000060648201526084016104f6565b891515612a99856143ff565b151503612ae85760405162461bcd60e51b815260206004820152601460248201527f496e76616c6964207374617465206368616e676500000000000000000000000060448201526064016104f6565b612af28542614735565b612afc848b6145d3565b6040518a1515815233907fed2d3ca39683fb0f50a70ed75c33a19bfe200e529d99e6f7518453b3fc4e9be49060200160405180910390a250505050505050505050565b6040517f6e6f64652e736d6f6f7468696e672e706f6f6c2e73746174650000000000000060208201526bffffffffffffffffffffffff19606083901b16603982015260009061065490604d01610493565b6040518060400160405280601181526020017f726f636b65744e6f64654d616e6167657200000000000000000000000000000081525030612bdb826040516020016106399190614e01565b6001600160a01b0316816001600160a01b031614612c3b5760405162461bcd60e51b815260206004820152601c60248201527f496e76616c6964206f72206f7574646174656420636f6e74726163740000000060448201526064016104f6565b33612c8e8160405160200161049391907f6e6f64652e657869737473000000000000000000000000000000000000000000815260609190911b6bffffffffffffffffffffffff1916600b820152601f0190565b612cda5760405162461bcd60e51b815260206004820152600c60248201527f496e76616c6964206e6f6465000000000000000000000000000000000000000060448201526064016104f6565b6004841015612d2b5760405162461bcd60e51b815260206004820181905260248201527f5468652074696d657a6f6e65206c6f636174696f6e20697320696e76616c696460448201526064016104f6565b6040517f6e6f64652e74696d657a6f6e652e6c6f636174696f6e0000000000000000000060208201526bffffffffffffffffffffffff193360601b166036820152612dc590604a016040516020818303038152906040528051906020012086868080601f01602080910402602001604051908101604052809392919081815260200183838082843760009201919091525061465b92505050565b60405142815233907fbb0b10d06b6fa081d0905e789877ce0321fafa4702ffeacaaff6e2d38063616a9060200160405180910390a25050505050565b6040517f6e6f64652e74696d657a6f6e652e6c6f636174696f6e000000000000000000006020820152606082811b6bffffffffffffffffffffffff191660368301529061065490604a016110ea565b600080612e916040518060400160405280601181526020017f6164647265737353657453746f72616765000000000000000000000000000000815250614564565b90506000604051602001612ec8907f6e6f6465732e696e6465780000000000000000000000000000000000000000008152600b0190565b6040516020818303038152906040528051906020012090506000612eea6115ce565b90506000612ef88688614eab565b905081811180612f06575085155b15612f0e5750805b6000875b82811015612fd5576040517ff3358a3a00000000000000000000000000000000000000000000000000000000815260048101869052602481018290526000906001600160a01b0388169063f3358a3a90604401602060405180830381865afa158015612f82573d6000803e3d6000fd5b505050506040513d601f19601f82011682018060405250810190612fa69190614f00565b9050612fb181612b3f565b15612fc45782612fc081614f4c565b9350505b50612fce81614f4c565b9050612f12565b50979650505050505050565b6040517f6e6f64652e72706c2e7769746864726177616c2e61646472657373000000000060208201526bffffffffffffffffffffffff19606083901b16603b820152600090819061303490604f01610639565b90506001600160a01b038116610654576000546040517f5b49ff620000000000000000000000000000000000000000000000000000000081526001600160a01b03858116600483015261010090920490911690635b49ff62906024015b602060405180830381865afa1580156130ae573d6000803e3d6000fd5b505050506040513d601f19601f820116820180604052508101906105b89190614f00565b6000806131136040518060400160405280601181526020017f6164647265737353657453746f72616765000000000000000000000000000000815250614564565b9050806001600160a01b031663f3358a3a604051602001613157907f6e6f6465732e696e6465780000000000000000000000000000000000000000008152600b0190565b60408051601f198184030181529082905280516020909101207fffffffff0000000000000000000000000000000000000000000000000000000060e084901b168252600482015260248101869052604401613091565b613296604051806103200160405280600015158152602001600081526020016060815260200160001515815260200160006001600160a01b0316815260200160008152602001600081526020016000815260200160008152602001600081526020016000815260200160008152602001600081526020016000815260200160008152602001600081526020016000815260200160008152602001600081526020016000815260200160006001600160a01b0316815260200160006001600160a01b031681526020016000151581526020016000815260200160006001600160a01b031681525090565b60006132d66040518060400160405280601181526020017f726f636b65744e6f64655374616b696e67000000000000000000000000000000815250614564565b905060006133186040518060400160405280601181526020017f726f636b65744e6f64654465706f736974000000000000000000000000000000815250614564565b9050600061335a6040518060400160405280601c81526020017f726f636b65744e6f64654469737472696275746f72466163746f727900000000815250614564565b9050600061339c6040518060400160405280601581526020017f726f636b65744d696e69706f6f6c4d616e616765720000000000000000000000815250614564565b905060006133de6040518060400160405280600f81526020017f726f636b6574546f6b656e524554480000000000000000000000000000000000815250614564565b905060006134206040518060400160405280600e81526020017f726f636b6574546f6b656e52504c000000000000000000000000000000000000815250614564565b905060006134626040518060400160405280601981526020017f726f636b6574546f6b656e52504c4669786564537570706c7900000000000000815250614564565b6001600160a01b038a81166103008b018190526000546040517f5b49ff6200000000000000000000000000000000000000000000000000000000815260048101929092529293506101009092041690635b49ff6290602401602060405180830381865afa1580156134d7573d6000803e3d6000fd5b505050506040513d601f19601f820116820180604052508101906134fb9190614f00565b6001600160a01b039081166102808a01526000546040517ffd4125130000000000000000000000000000000000000000000000000000000081528b831660048201526101009091049091169063fd41251390602401602060405180830381865afa15801561356d573d6000803e3d6000fd5b505050506040513d601f19601f820116820180604052508101906135919190614f00565b6001600160a01b03166102a08901526135a989612525565b151588526135b689610444565b60208901526135c489612e01565b60408901526135d289612576565b151560608901526135e289611ec6565b60a08901526040517f9961cee40000000000000000000000000000000000000000000000000000000081526001600160a01b038a81166004830152881690639961cee490602401602060405180830381865afa158015613646573d6000803e3d6000fd5b505050506040513d601f19601f8201168201806040525081019061366a9190614e63565b60c08901526040517ff0d19b890000000000000000000000000000000000000000000000000000000081526001600160a01b038a8116600483015288169063f0d19b8990602401602060405180830381865afa1580156136ce573d6000803e3d6000fd5b505050506040513d601f19601f820116820180604052508101906136f29190614e63565b60e08901526040517f03fa87b40000000000000000000000000000000000000000000000000000000081526001600160a01b038a811660048301528816906303fa87b490602401602060405180830381865afa158015613756573d6000803e3d6000fd5b505050506040513d601f19601f8201168201806040525081019061377a9190614e63565b6101008901526040517f4e58ff6e0000000000000000000000000000000000000000000000000000000081526001600160a01b038a81166004830152881690634e58ff6e90602401602060405180830381865afa1580156137df573d6000803e3d6000fd5b505050506040513d601f19601f820116820180604052508101906138039190614e63565b6101208901526040517fa493e6a20000000000000000000000000000000000000000000000000000000081526001600160a01b038a8116600483015288169063a493e6a290602401602060405180830381865afa158015613868573d6000803e3d6000fd5b505050506040513d601f19601f8201168201806040525081019061388c9190614e63565b6101408901526040517f48aeedf50000000000000000000000000000000000000000000000000000000081526001600160a01b038a811660048301528816906348aeedf590602401602060405180830381865afa1580156138f1573d6000803e3d6000fd5b505050506040513d601f19601f820116820180604052508101906139159190614e63565b6101608901526040517ffa2a5b010000000000000000000000000000000000000000000000000000000081526001600160a01b038a8116600483015286169063fa2a5b0190602401602060405180830381865afa15801561397a573d6000803e3d6000fd5b505050506040513d601f19601f8201168201806040525081019061399e9190614f00565b6001600160a01b031660808901819052604080517f372d054b000000000000000000000000000000000000000000000000000000008152905182319291829163372d054b916004808201926020929091908290030181865afa158015613a08573d6000803e3d6000fd5b505050506040513d601f19601f82011682018060405250810190613a2c9190614e63565b6102608b01819052613a3e9083614ebe565b6102408b01526040517f1ce9ec330000000000000000000000000000000000000000000000000000000081526001600160a01b038c81166004830152871690631ce9ec3390602401602060405180830381865afa158015613aa3573d6000803e3d6000fd5b505050506040513d601f19601f82011682018060405250810190613ac79190614e63565b6101808b01526001600160a01b038b811680316101a08d01526040517f70a082310000000000000000000000000000000000000000000000000000000081526004810191909152908616906370a0823190602401602060405180830381865afa158015613b38573d6000803e3d6000fd5b505050506040513d601f19601f82011682018060405250810190613b5c9190614e63565b6101c08b01526040517f70a082310000000000000000000000000000000000000000000000000000000081526001600160a01b038c811660048301528516906370a0823190602401602060405180830381865afa158015613bc1573d6000803e3d6000fd5b505050506040513d601f19601f82011682018060405250810190613be59190614e63565b6101e08b01526040517f70a082310000000000000000000000000000000000000000000000000000000081526001600160a01b038c811660048301528416906370a0823190602401602060405180830381865afa158015613c4a573d6000803e3d6000fd5b505050506040513d601f19601f82011682018060405250810190613c6e9190614e63565b6102008b01526040517f493c94670000000000000000000000000000000000000000000000000000000081526001600160a01b038c8116600483015289169063493c946790602401602060405180830381865afa158015613cd3573d6000803e3d6000fd5b505050506040513d601f19601f82011682018060405250810190613cf79190614e63565b6102208b015250979998505050505050505050565b6040518060400160405280601181526020017f726f636b65744e6f64654d616e6167657200000000000000000000000000000081525030613d57826040516020016106399190614e01565b6001600160a01b0316816001600160a01b031614613db75760405162461bcd60e51b815260206004820152601c60248201527f496e76616c6964206f72206f7574646174656420636f6e74726163740000000060448201526064016104f6565b600080546040517f5b49ff620000000000000000000000000000000000000000000000000000000081526001600160a01b03878116600483015261010090920490911690635b49ff6290602401602060405180830381865afa158015613e21573d6000803e3d6000fd5b505050506040513d601f19601f82011682018060405250810190613e459190614f00565b90506001600160a01b0381163314613eec5760405162461bcd60e51b8152602060048201526044602482018190527f4f6e6c7920612074782066726f6d2061206e6f64652773207769746864726177908201527f616c20616464726573732063616e206368616e676520726577617264206e657460648201527f776f726b00000000000000000000000000000000000000000000000000000000608482015260a4016104f6565b6000613f0f6040518060600160405280602381526020016151cc60239139614564565b6040517f6dd2623e000000000000000000000000000000000000000000000000000000008152600481018790529091506001600160a01b03821690636dd2623e90602401602060405180830381865afa158015613f70573d6000803e3d6000fd5b505050506040513d601f19601f82011682018060405250810190613f949190614e46565b613fe05760405162461bcd60e51b815260206004820152601660248201527f4e6574776f726b206973206e6f7420656e61626c65640000000000000000000060448201526064016104f6565b6040517f6e6f64652e7265776172642e6e6574776f726b0000000000000000000000000060208201526bffffffffffffffffffffffff19606088901b166033820152614045906047016040516020818303038152906040528051906020012086614735565b856001600160a01b03167f7c50987deec06761094239e9ff28caa9cfdd305f9c65011c284a0e40cbf4cfdc8660405161408091815260200190565b60405180910390a2505050505050565b6040517f6e6f64652e72706c2e7769746864726177616c2e61646472657373000000000060208201526bffffffffffffffffffffffff19606083901b16603b82015260009081906140e390604f01610639565b6001600160a01b0316141592915050565b6040517f6e6f64652e65786973747300000000000000000000000000000000000000000060208201526bffffffffffffffffffffffff19606085901b16602b820152839061414490603f01610493565b6141905760405162461bcd60e51b815260206004820152600c60248201527f496e76616c6964206e6f6465000000000000000000000000000000000000000060448201526064016104f6565b6001600160a01b0383166141e65760405162461bcd60e51b815260206004820152601e60248201527f496e76616c69642052504c207769746864726177616c2061646472657373000060448201526064016104f6565b60006141f185612fe1565b90506001600160a01b03811633146142715760405162461bcd60e51b815260206004820152603c60248201527f4f6e6c7920612074782066726f6d2061206e6f646527732052504c207769746860448201527f64726177616c20616464726573732063616e207570646174652069740000000060648201526084016104f6565b82156143195761430a856040516020016142ef91907f6e6f64652e70656e64696e672e72706c2e7769746864726177616c2e6164647281527f6573730000000000000000000000000000000000000000000000000000000000602082015260609190911b6bffffffffffffffffffffffff1916602382015260370190565b6040516020818303038152906040528051906020012061481a565b6143148585614891565b61251e565b61251e8560405160200161439191907f6e6f64652e70656e64696e672e72706c2e7769746864726177616c2e6164647281527f6573730000000000000000000000000000000000000000000000000000000000602082015260609190911b6bffffffffffffffffffffffff1916602382015260370190565b6040516020818303038152906040528051906020012085614947565b600080546040517ffd4125130000000000000000000000000000000000000000000000000000000081526001600160a01b0384811660048301526101009092049091169063fd4125139060240161206b565b600080546040517f7ae1cfca000000000000000000000000000000000000000000000000000000008152600481018490526101009091046001600160a01b031690637ae1cfca90602401602060405180830381865afa158015614466573d6000803e3d6000fd5b505050506040513d601f19601f820116820180604052508101906106549190614e46565b600080546040517fbd02d0f5000000000000000000000000000000000000000000000000000000008152600481018490526101009091046001600160a01b03169063bd02d0f590602401602060405180830381865afa1580156144f1573d6000803e3d6000fd5b505050506040513d601f19601f820116820180604052508101906106549190614e63565b600080546040517f21f8a721000000000000000000000000000000000000000000000000000000008152600481018490526101009091046001600160a01b0316906321f8a7219060240161206b565b60008061457b836040516020016106399190614e01565b90506001600160a01b0381166106545760405162461bcd60e51b815260206004820152601260248201527f436f6e7472616374206e6f7420666f756e64000000000000000000000000000060448201526064016104f6565b6000546040517fabfdcced0000000000000000000000000000000000000000000000000000000081526004810184905282151560248201526101009091046001600160a01b03169063abfdcced906044015b600060405180830381600087803b15801561463f57600080fd5b505af1158015614653573d6000803e3d6000fd5b505050505050565b6000546040517f6e8995500000000000000000000000000000000000000000000000000000000081526101009091046001600160a01b031690636e8995509061462590859085906004016150fd565b60006146ea6040518060400160405280601c81526020017f726f636b65744e6f64654469737472696275746f72466163746f727900000000815250614564565b6040517f6140c54c0000000000000000000000000000000000000000000000000000000081526001600160a01b03848116600483015291925090821690636140c54c90602401614625565b6000546040517fe2a4853a00000000000000000000000000000000000000000000000000000000815260048101849052602481018390526101009091046001600160a01b03169063e2a4853a90604401614625565b6000546040517f986e791a0000000000000000000000000000000000000000000000000000000081526004810183905260609161010090046001600160a01b03169063986e791a90602401600060405180830381865afa1580156147f2573d6000803e3d6000fd5b505050506040513d6000823e601f3d908101601f191682016040526106549190810190615116565b6000546040517f0e14a376000000000000000000000000000000000000000000000000000000008152600481018390526101009091046001600160a01b031690630e14a37690602401600060405180830381600087803b15801561487d57600080fd5b505af115801561251e573d6000803e3d6000fd5b6040517f6e6f64652e72706c2e7769746864726177616c2e61646472657373000000000060208201526bffffffffffffffffffffffff19606084901b16603b8201526148f690604f016040516020818303038152906040528051906020012082614947565b806001600160a01b0316826001600160a01b03167f18702dcdad68e2a2d4350dc9f33402b58fd397352dd47a45312fccd5ff1e52a64260405161493b91815260200190565b60405180910390a35050565b6000546040517fca446dd9000000000000000000000000000000000000000000000000000000008152600481018490526001600160a01b0383811660248301526101009092049091169063ca446dd990604401614625565b6001600160a01b03811681146149b457600080fd5b50565b6000602082840312156149c957600080fd5b81356105b88161499f565b600080602083850312156149e757600080fd5b823567ffffffffffffffff808211156149ff57600080fd5b818501915085601f830112614a1357600080fd5b813581811115614a2257600080fd5b866020828501011115614a3457600080fd5b60209290920196919550909350505050565b60008060408385031215614a5957600080fd5b50508035926020909101359150565b60005b83811015614a83578181015183820152602001614a6b565b50506000910152565b60008151808452614aa4816020860160208601614a68565b601f01601f19169290920160200192915050565b60006020808301818452808551808352604092508286019150828160051b87010184880160005b83811015614b3e577fffffffffffffffffffffffffffffffffffffffffffffffffffffffffffffffc089840301855281518051878552614b2188860182614a8c565b918901519489019490945294870194925090860190600101614adf565b509098975050505050505050565b6020808252825182820181905260009190848201906040850190845b81811015614b8d5783516001600160a01b031683529284019291840191600101614b68565b50909695505050505050565b80151581146149b457600080fd5b600060208284031215614bb957600080fd5b81356105b881614b99565b6020815260006105b86020830184614a8c565b600060208284031215614be957600080fd5b5035919050565b60208152614c0360208201835115159052565b6020820151604082015260006040830151610320806060850152614c2b610340850183614a8c565b91506060850151614c40608086018215159052565b5060808501516001600160a01b03811660a08601525060a085015160c08581019190915285015160e08086019190915285015161010080860191909152850151610120808601919091528501516101408086019190915285015161016080860191909152850151610180808601919091528501516101a0808601919091528501516101c0808601919091528501516101e08086019190915285015161020080860191909152850151610220808601919091528501516102408086019190915285015161026080860191909152850151610280808601919091528501516102a0614d33818701836001600160a01b03169052565b86015190506102c0614d4f868201836001600160a01b03169052565b86015190506102e0614d648682018315159052565b86015161030086810191909152909501516001600160a01b031693019290925250919050565b60008060408385031215614d9d57600080fd5b8235614da88161499f565b946020939093013593505050565b600080600060608486031215614dcb57600080fd5b8335614dd68161499f565b92506020840135614de68161499f565b91506040840135614df681614b99565b809150509250925092565b7f636f6e74726163742e6164647265737300000000000000000000000000000000815260008251614e39816010850160208701614a68565b9190910160100192915050565b600060208284031215614e5857600080fd5b81516105b881614b99565b600060208284031215614e7557600080fd5b5051919050565b7f4e487b7100000000000000000000000000000000000000000000000000000000600052601160045260246000fd5b8082018082111561065457610654614e7c565b8181038181111561065457610654614e7c565b7f4e487b7100000000000000000000000000000000000000000000000000000000600052604160045260246000fd5b600060208284031215614f1257600080fd5b81516105b88161499f565b7f4e487b7100000000000000000000000000000000000000000000000000000000600052603260045260246000fd5b60007fffffffffffffffffffffffffffffffffffffffffffffffffffffffffffffffff8203614f7d57614f7d614e7c565b5060010190565b604051601f8201601f1916810167ffffffffffffffff81118282101715614fad57614fad614ed1565b604052919050565b60006020808385031215614fc857600080fd5b825167ffffffffffffffff80821115614fe057600080fd5b818501915085601f830112614ff457600080fd5b81518181111561500657615006614ed1565b8060051b9150615017848301614f84565b818152918301840191848101908884111561503157600080fd5b938501935b8385101561504f57845182529385019390850190615036565b98975050505050505050565b808202811582820484141761065457610654614e7c565b6000826150a8577f4e487b7100000000000000000000000000000000000000000000000000000000600052601260045260246000fd5b500490565b7f4e487b7100000000000000000000000000000000000000000000000000000000600052602160045260246000fd5b6000602082840312156150ee57600080fd5b8151600581106105b857600080fd5b828152604060208201526000611fc16040830184614a8c565b60006020828403121561512857600080fd5b815167ffffffffffffffff8082111561514057600080fd5b818401915084601f83011261515457600080fd5b81518181111561516657615166614ed1565b6151796020601f19601f84011601614f84565b915080825285602082850101111561519057600080fd5b6151a1816020840160208601614a68565b5094935050505056fe726f636b657444414f50726f746f636f6c53657474696e67734d696e69706f6f6c726f636b657444414f4e6f64655472757374656453657474696e677352657761726473a2646970667358221220892b1ba6bbb4ebe73234f2054c870e71d9b0e424d9be910ae6f6be85b330c1a564736f6c63430008120033",
  "linkReferences": {},
  "deployedLinkReferences": {}
}