{
  "_format": "hh-sol-artifact-1",
  "contractName": "RocketNetworkVoting",
  "sourceName": "contracts/contract/network/RocketNetworkVoting.sol",
  "abi": [
    {
      "inputs": [
        {
          "internalType": "contract RocketStorageInterface",
          "name": "_rocketStorageAddress",
          "type": "address"
        }
      ],
      "stateMutability": "nonpayable",
      "type": "constructor"
    },
    {
      "anonymous": false,
      "inputs": [
        {
          "indexed": false,
          "internalType": "address",
          "name": "nodeOperator",
          "type": "address"
        },
        {
          "indexed": false,
          "internalType": "address",
          "name": "delegate",
          "type": "address"
        },
        {
          "indexed": false,
          "internalType": "uint256",
          "name": "time",
          "type": "uint256"
        }
      ],
      "name": "DelegateSet",
      "type": "event"
    },
    {
      "inputs": [
        {
          "internalType": "address",
          "name": "_nodeAddress",
          "type": "address"
        }
      ],
      "name": "getCurrentDelegate",
      "outputs": [
        {
          "internalType": "address",
          "name": "",
          "type": "address"
        }
      ],
      "stateMutability": "view",
      "type": "function"
    },
    {
      "inputs": [
        {
          "internalType": "address",
          "name": "_nodeAddress",
          "type": "address"
        },
        {
          "internalType": "uint32",
          "name": "_block",
          "type": "uint32"
        }
      ],
      "name": "getDelegate",
      "outputs": [
        {
          "internalType": "address",
          "name": "",
          "type": "address"
        }
      ],
      "stateMutability": "view",
      "type": "function"
    },
    {
      "inputs": [
        {
          "internalType": "uint32",
          "name": "_block",
          "type": "uint32"
        }
      ],
      "name": "getNodeCount",
      "outputs": [
        {
          "internalType": "uint256",
          "name": "",
          "type": "uint256"
        }
      ],
      "stateMutability": "view",
      "type": "function"
    },
    {
      "inputs": [
        {
          "internalType": "address",
          "name": "_nodeAddress",
          "type": "address"
        }
      ],
      "name": "getVotingInitialised",
      "outputs": [
        {
          "internalType": "bool",
          "name": "",
          "type": "bool"
        }
      ],
      "stateMutability": "view",
      "type": "function"
    },
    {
      "inputs": [
        {
          "internalType": "address",
          "name": "_nodeAddress",
          "type": "address"
        },
        {
          "internalType": "uint32",
          "name": "_block",
          "type": "uint32"
        }
      ],
      "name": "getVotingPower",
      "outputs": [
        {
          "internalType": "uint256",
          "name": "",
          "type": "uint256"
        }
      ],
      "stateMutability": "view",
      "type": "function"
    },
    {
      "inputs": [
        {
          "internalType": "address",
          "name": "_delegate",
          "type": "address"
        }
      ],
      "name": "initialiseVoting",
      "outputs": [],
      "stateMutability": "nonpayable",
      "type": "function"
    },
    {
      "inputs": [],
      "name": "initialiseVoting",
      "outputs": [],
      "stateMutability": "nonpayable",
      "type": "function"
    },
    {
      "inputs": [
        {
          "internalType": "address",
          "name": "_newDelegate",
          "type": "address"
        }
      ],
      "name": "setDelegate",
      "outputs": [],
      "stateMutability": "nonpayable",
      "type": "function"
    },
    {
      "inputs": [],
      "name": "version",
      "outputs": [
        {
          "internalType": "uint8",
          "name": "",
          "type": "uint8"
        }
      ],
      "stateMutability": "view",
      "type": "function"
    }
  ],
  "bytecode": "0x60a060405260008054610100600160a81b031916905534801561002157600080fd5b506040516200220c3803806200220c8339810160408190526100429161009a565b6000805460ff196001600160a01b0390931661010002929092166001600160a81b03199092169190911760011790557f25a22f579c19c441c6276bbd381ad43715a7c75c8781f5ee499cba2bb59cd23b6080526100ca565b6000602082840312156100ac57600080fd5b81516001600160a01b03811681146100c357600080fd5b9392505050565b608051612126620000e66000396000610b2d01526121266000f3fe608060405234801561001057600080fd5b50600436106100a35760003560e01c80636f2d56691161007657806387f78dc61161005b57806387f78dc6146101655780638e95df9014610178578063ca5eb5e11461018b57600080fd5b80636f2d56691461013a578063856e7b441461014257600080fd5b806328c70de0146100a857806352dd2248146100e557806354fd4d50146100fa57806366bf3ffb14610119575b600080fd5b6100bb6100b6366004611eb1565b61019e565b60405173ffffffffffffffffffffffffffffffffffffffff90911681526020015b60405180910390f35b6100f86100f3366004611ee6565b6102ef565b005b6000546101079060ff1681565b60405160ff90911681526020016100dc565b61012c610127366004611f03565b61048c565b6040519081526020016100dc565b6100f86105e4565b610155610150366004611ee6565b6106a9565b60405190151581526020016100dc565b61012c610173366004611eb1565b6106fa565b6100bb610186366004611ee6565b610e4c565b6100f8610199366004611ee6565b610f87565b6000806101df6040518060400160405280601681526020017f726f636b65744e6574776f726b536e617073686f747300000000000000000000815250611289565b6040517f6e6f64652e64656c65676174650000000000000000000000000000000000000060208201526bffffffffffffffffffffffff19606087901b16602d82015290915060009060410160408051808303601f190181529082905280516020909101207fb5a352a80000000000000000000000000000000000000000000000000000000082526004820181905263ffffffff86166024830152600a6044830152915073ffffffffffffffffffffffffffffffffffffffff83169063b5a352a890606401602060405180830381865afa1580156102c0573d6000803e3d6000fd5b505050506040513d601f19601f820116820180604052508101906102e49190611f1e565b925050505b92915050565b3361035d8160405160200161034291907f6e6f64652e657869737473000000000000000000000000000000000000000000815260609190911b6bffffffffffffffffffffffff1916600b820152601f0190565b6040516020818303038152906040528051906020012061133a565b6103c8576040517f08c379a000000000000000000000000000000000000000000000000000000000815260206004820152600c60248201527f496e76616c6964206e6f6465000000000000000000000000000000000000000060448201526064015b60405180910390fd5b6040517f6e6f64652e65786973747300000000000000000000000000000000000000000060208201526bffffffffffffffffffffffff19606084901b16602b820152829061041890603f01610342565b61047e576040517f08c379a000000000000000000000000000000000000000000000000000000000815260206004820152600c60248201527f496e76616c6964206e6f6465000000000000000000000000000000000000000060448201526064016103bf565b610487836113d2565b505050565b6000806104cd6040518060400160405280601681526020017f726f636b65744e6574776f726b536e617073686f747300000000000000000000815250611289565b90506000604051602001610504907f6e6f64652e636f756e74000000000000000000000000000000000000000000008152600a0190565b60408051808303601f190181529082905280516020909101207fb5a352a80000000000000000000000000000000000000000000000000000000082526004820181905263ffffffff86166024830152600a6044830152915073ffffffffffffffffffffffffffffffffffffffff83169063b5a352a890606401602060405180830381865afa15801561059a573d6000803e3d6000fd5b505050506040513d601f19601f820116820180604052508101906105be9190611f1e565b7bffffffffffffffffffffffffffffffffffffffffffffffffffffffff16949350505050565b336106378160405160200161034291907f6e6f64652e657869737473000000000000000000000000000000000000000000815260609190911b6bffffffffffffffffffffffff1916600b820152601f0190565b61069d576040517f08c379a000000000000000000000000000000000000000000000000000000000815260206004820152600c60248201527f496e76616c6964206e6f6465000000000000000000000000000000000000000060448201526064016103bf565b6106a6336113d2565b50565b6040517f6e6f64652e766f74696e672e656e61626c65640000000000000000000000000060208201526bffffffffffffffffffffffff19606083901b1660338201526000906102e990604701610342565b6000438263ffffffff16111561076c576040517f08c379a000000000000000000000000000000000000000000000000000000000815260206004820152601960248201527f426c6f636b206d75737420626520696e2074686520706173740000000000000060448201526064016103bf565b6040517f6e6f64652e766f74696e672e656e61626c65640000000000000000000000000060208201526bffffffffffffffffffffffff19606085901b1660338201526107ba90604701610342565b6107c6575060006102e9565b60006108066040518060400160405280601681526020017f726f636b65744e6574776f726b536e617073686f747300000000000000000000815250611289565b9050600061082b6040518060600160405280602181526020016120d060219139611289565b6040517f6574682e6d6174636865642e6e6f64652e616d6f756e7400000000000000000060208201526bffffffffffffffffffffffff19606088901b166037820152909150600090604b0160408051601f198184030181529082905280516020909101207fb5a352a80000000000000000000000000000000000000000000000000000000082526004820181905263ffffffff8716602483015260056044830152915060009073ffffffffffffffffffffffffffffffffffffffff85169063b5a352a890606401602060405180830381865afa15801561090f573d6000803e3d6000fd5b505050506040513d601f19601f820116820180604052508101906109339190611f1e565b6040517f6d696e69706f6f6c732e6163746976652e636f756e740000000000000000000060208201526bffffffffffffffffffffffff1960608a901b1660368201527bffffffffffffffffffffffffffffffffffffffffffffffffffffffff919091169150604a0160408051601f198184030181529082905280516020909101207fb5a352a80000000000000000000000000000000000000000000000000000000082526004820181905263ffffffff8816602483015260056044830152925060009073ffffffffffffffffffffffffffffffffffffffff86169063b5a352a890606401602060405180830381865afa158015610a34573d6000803e3d6000fd5b505050506040513d601f19601f82011682018060405250810190610a589190611f1e565b7bffffffffffffffffffffffffffffffffffffffffffffffffffffffff16905060008473ffffffffffffffffffffffffffffffffffffffff166308e50d386040518163ffffffff1660e01b8152600401602060405180830381865afa158015610ac5573d6000803e3d6000fd5b505050506040513d601f19601f82011682018060405250810190610ae99190611f5c565b90506000610af78284611fa4565b90506000610b058583611fbb565b6040517fb5a352a80000000000000000000000000000000000000000000000000000000081527f0000000000000000000000000000000000000000000000000000000000000000600482015263ffffffff8c166024820152600e604482015290915060009073ffffffffffffffffffffffffffffffffffffffff8a169063b5a352a890606401602060405180830381865afa158015610ba8573d6000803e3d6000fd5b505050506040513d601f19601f82011682018060405250810190610bcc9190611f1e565b6040517f72706c2e7374616b65642e6e6f64652e616d6f756e740000000000000000000060208201526bffffffffffffffffffffffff1960608f901b1660368201527bffffffffffffffffffffffffffffffffffffffffffffffffffffffff919091169150604a0160408051601f198184030181529082905280516020909101207fb5a352a80000000000000000000000000000000000000000000000000000000082526004820181905263ffffffff8d16602483015260056044830152975060009073ffffffffffffffffffffffffffffffffffffffff8b169063b5a352a890606401602060405180830381865afa158015610ccd573d6000803e3d6000fd5b505050506040513d601f19601f82011682018060405250810190610cf19190611f1e565b604080518082018252601f81527f6e6f64652e766f74696e672e706f7765722e7374616b652e6d6178696d756d00602090910152517fb5a352a80000000000000000000000000000000000000000000000000000000081527f1b6028195e85a43527189139611db98fd210d645ea6839e6c06effd45b5934a96004820181905263ffffffff8f1660248301526002604483015299507bffffffffffffffffffffffffffffffffffffffffffffffffffffffff91909116915060009073ffffffffffffffffffffffffffffffffffffffff8c169063b5a352a890606401602060405180830381865afa158015610dea573d6000803e3d6000fd5b505050506040513d601f19601f82011682018060405250810190610e0e9190611f1e565b7bffffffffffffffffffffffffffffffffffffffffffffffffffffffff169050610e3a82858584611b78565b9e9d5050505050505050505050505050565b600080610e8d6040518060400160405280601681526020017f726f636b65744e6574776f726b536e617073686f747300000000000000000000815250611289565b6040517f6e6f64652e64656c65676174650000000000000000000000000000000000000060208201526bffffffffffffffffffffffff19606086901b16602d82015290915060009060410160408051808303601f190181529082905280516020909101207f6838444b00000000000000000000000000000000000000000000000000000000825260048201819052915073ffffffffffffffffffffffffffffffffffffffff831690636838444b90602401602060405180830381865afa158015610f5b573d6000803e3d6000fd5b505050506040513d601f19601f82011682018060405250810190610f7f9190611f1e565b949350505050565b33610fda8160405160200161034291907f6e6f64652e657869737473000000000000000000000000000000000000000000815260609190911b6bffffffffffffffffffffffff1916600b820152601f0190565b611040576040517f08c379a000000000000000000000000000000000000000000000000000000000815260206004820152600c60248201527f496e76616c6964206e6f6465000000000000000000000000000000000000000060448201526064016103bf565b6040517f6e6f64652e65786973747300000000000000000000000000000000000000000060208201526bffffffffffffffffffffffff19606084901b16602b820152829061109090603f01610342565b6110f6576040517f08c379a000000000000000000000000000000000000000000000000000000000815260206004820152600c60248201527f496e76616c6964206e6f6465000000000000000000000000000000000000000060448201526064016103bf565b60006111366040518060400160405280601681526020017f726f636b65744e6574776f726b536e617073686f747300000000000000000000815250611289565b6040517f6e6f64652e64656c65676174650000000000000000000000000000000000000060208201526bffffffffffffffffffffffff193360601b16602d82015290915060009060410160408051601f198184030181529082905280516020909101207f231e5cde0000000000000000000000000000000000000000000000000000000082526004820181905263ffffffff4316602483015273ffffffffffffffffffffffffffffffffffffffff878116604484015290925083169063231e5cde90606401600060405180830381600087803b15801561121557600080fd5b505af1158015611229573d6000803e3d6000fd5b50506040805133815273ffffffffffffffffffffffffffffffffffffffff89166020820152428183015290517fd15a2994a2be5b325d8cf542ec472b0d5ad99afd2a4ad83fccf716de4e4c28169350908190036060019150a15050505050565b6000806112bb836040516020016112a09190611fce565b60405160208183030381529060405280519060200120611bb1565b905073ffffffffffffffffffffffffffffffffffffffff81166102e9576040517f08c379a000000000000000000000000000000000000000000000000000000000815260206004820152601260248201527f436f6e7472616374206e6f7420666f756e64000000000000000000000000000060448201526064016103bf565b600080546040517f7ae1cfca0000000000000000000000000000000000000000000000000000000081526004810184905261010090910473ffffffffffffffffffffffffffffffffffffffff1690637ae1cfca90602401602060405180830381865afa1580156113ae573d6000803e3d6000fd5b505050506040513d601f19601f820116820180604052508101906102e99190612026565b6040517f6e6f64652e766f74696e672e656e61626c65640000000000000000000000000060208201526bffffffffffffffffffffffff193360601b16603382015261141f90604701610342565b15611486576040517f08c379a000000000000000000000000000000000000000000000000000000000815260206004820152601260248201527f416c72656164792072656769737465726564000000000000000000000000000060448201526064016103bf565b6040517f6e6f64652e766f74696e672e656e61626c65640000000000000000000000000060208201526bffffffffffffffffffffffff193360601b1660338201526114eb90604701604051602081830303815290604052805190602001206001611c49565b600061152b6040518060400160405280601681526020017f726f636b65744e6574776f726b536e617073686f747300000000000000000000815250611289565b9050600061156d6040518060400160405280601181526020017f726f636b65744e6f64655374616b696e67000000000000000000000000000000815250611289565b905060006115af6040518060400160405280601581526020017f726f636b65744d696e69706f6f6c4d616e616765720000000000000000000000815250611289565b6040517f6574682e6d6174636865642e6e6f64652e616d6f756e7400000000000000000060208201526bffffffffffffffffffffffff193360601b166037820152909150600090604b0160408051601f198184030181529082905280516020909101207fa493e6a2000000000000000000000000000000000000000000000000000000008252336004830152915073ffffffffffffffffffffffffffffffffffffffff8086169163231e5cde918491439188169063a493e6a290602401602060405180830381865afa158015611689573d6000803e3d6000fd5b505050506040513d601f19601f820116820180604052508101906116ad9190611f5c565b6040517fffffffff0000000000000000000000000000000000000000000000000000000060e086901b168152600481019390935263ffffffff9190911660248301527bffffffffffffffffffffffffffffffffffffffffffffffffffffffff166044820152606401600060405180830381600087803b15801561172f57600080fd5b505af1158015611743573d6000803e3d6000fd5b50506040517f6d696e69706f6f6c732e6163746976652e636f756e740000000000000000000060208201526bffffffffffffffffffffffff193360601b166036820152604a0191506117929050565b60408051601f198184030181529082905280516020909101207f1844ec01000000000000000000000000000000000000000000000000000000008252336004830152915073ffffffffffffffffffffffffffffffffffffffff8086169163231e5cde9184914391871690631844ec0190602401602060405180830381865afa158015611822573d6000803e3d6000fd5b505050506040513d601f19601f820116820180604052508101906118469190611f5c565b6040517fffffffff0000000000000000000000000000000000000000000000000000000060e086901b168152600481019390935263ffffffff9190911660248301527bffffffffffffffffffffffffffffffffffffffffffffffffffffffff166044820152606401600060405180830381600087803b1580156118c857600080fd5b505af11580156118dc573d6000803e3d6000fd5b50506040517f72706c2e7374616b65642e6e6f64652e616d6f756e740000000000000000000060208201526bffffffffffffffffffffffff193360601b166036820152604a01915061192b9050565b60408051601f198184030181529082905280516020909101207f9961cee4000000000000000000000000000000000000000000000000000000008252336004830152915073ffffffffffffffffffffffffffffffffffffffff8086169163231e5cde9184914391881690639961cee490602401602060405180830381865afa1580156119bb573d6000803e3d6000fd5b505050506040513d601f19601f820116820180604052508101906119df9190611f5c565b6040517fffffffff0000000000000000000000000000000000000000000000000000000060e086901b168152600481019390935263ffffffff9190911660248301527bffffffffffffffffffffffffffffffffffffffffffffffffffffffff166044820152606401600060405180830381600087803b158015611a6157600080fd5b505af1158015611a75573d6000803e3d6000fd5b50506040517f6e6f64652e64656c65676174650000000000000000000000000000000000000060208201526bffffffffffffffffffffffff193360601b16602d8201526041019150611ac49050565b60408051601f198184030181529082905280516020909101207f231e5cde0000000000000000000000000000000000000000000000000000000082526004820181905263ffffffff4316602483015273ffffffffffffffffffffffffffffffffffffffff878116604484015290925085169063231e5cde90606401600060405180830381600087803b158015611b5957600080fd5b505af1158015611b6d573d6000803e3d6000fd5b505050505050505050565b60008083611b868487611fa4565b611b909190612077565b905080861115611b9e578095505b611ba786611cdd565b9695505050505050565b600080546040517f21f8a7210000000000000000000000000000000000000000000000000000000081526004810184905261010090910473ffffffffffffffffffffffffffffffffffffffff16906321f8a72190602401602060405180830381865afa158015611c25573d6000803e3d6000fd5b505050506040513d601f19601f820116820180604052508101906102e991906120b2565b6000546040517fabfdcced00000000000000000000000000000000000000000000000000000000815260048101849052821515602482015261010090910473ffffffffffffffffffffffffffffffffffffffff169063abfdcced90604401600060405180830381600087803b158015611cc157600080fd5b505af1158015611cd5573d6000803e3d6000fd5b505050505050565b600081600003611cef57506000919050565b60006001611cfc84611dcc565b901c6001901b90506001818481611d1557611d15612048565b048201901c90506001818481611d2d57611d2d612048565b048201901c90506001818481611d4557611d45612048565b048201901c90506001818481611d5d57611d5d612048565b048201901c90506001818481611d7557611d75612048565b048201901c90506001818481611d8d57611d8d612048565b048201901c90506001818481611da557611da5612048565b048201901c9050611dc581828581611dbf57611dbf612048565b04611e60565b9392505050565b600080608083901c15611de157608092831c92015b604083901c15611df357604092831c92015b602083901c15611e0557602092831c92015b601083901c15611e1757601092831c92015b600883901c15611e2957600892831c92015b600483901c15611e3b57600492831c92015b600283901c15611e4d57600292831c92015b600183901c156102e95760010192915050565b6000818310611e6f5781611dc5565b5090919050565b73ffffffffffffffffffffffffffffffffffffffff811681146106a657600080fd5b803563ffffffff81168114611eac57600080fd5b919050565b60008060408385031215611ec457600080fd5b8235611ecf81611e76565b9150611edd60208401611e98565b90509250929050565b600060208284031215611ef857600080fd5b8135611dc581611e76565b600060208284031215611f1557600080fd5b611dc582611e98565b600060208284031215611f3057600080fd5b81517bffffffffffffffffffffffffffffffffffffffffffffffffffffffff81168114611dc557600080fd5b600060208284031215611f6e57600080fd5b5051919050565b7f4e487b7100000000000000000000000000000000000000000000000000000000600052601160045260246000fd5b80820281158282048414176102e9576102e9611f75565b818103818111156102e9576102e9611f75565b7f636f6e74726163742e616464726573730000000000000000000000000000000081526000825160005b818110156120155760208186018101516010868401015201611ff8565b506000920160100191825250919050565b60006020828403121561203857600080fd5b81518015158114611dc557600080fd5b7f4e487b7100000000000000000000000000000000000000000000000000000000600052601260045260246000fd5b6000826120ad577f4e487b7100000000000000000000000000000000000000000000000000000000600052601260045260246000fd5b500490565b6000602082840312156120c457600080fd5b8151611dc581611e7656fe726f636b657444414f50726f746f636f6c53657474696e67734d696e69706f6f6ca26469706673582212202db53a7661da5bf86aefea5b39adef7cd45e5a8c9e0a7fe24c019c2376bcf20c64736f6c63430008120033",
  "linkReferences": {},
  "deployedLinkReferences": {}
}